{
  "_format": "hh-sol-artifact-1",
  "contractName": "MyEpicNFT",
  "sourceName": "contracts/MyEpicNFT.sol",
  "abi": [
    {
      "inputs": [],
      "stateMutability": "nonpayable",
      "type": "constructor"
    },
    {
      "anonymous": false,
      "inputs": [
        {
          "indexed": true,
          "internalType": "address",
          "name": "owner",
          "type": "address"
        },
        {
          "indexed": true,
          "internalType": "address",
          "name": "approved",
          "type": "address"
        },
        {
          "indexed": true,
          "internalType": "uint256",
          "name": "tokenId",
          "type": "uint256"
        }
      ],
      "name": "Approval",
      "type": "event"
    },
    {
      "anonymous": false,
      "inputs": [
        {
          "indexed": true,
          "internalType": "address",
          "name": "owner",
          "type": "address"
        },
        {
          "indexed": true,
          "internalType": "address",
          "name": "operator",
          "type": "address"
        },
        {
          "indexed": false,
          "internalType": "bool",
          "name": "approved",
          "type": "bool"
        }
      ],
      "name": "ApprovalForAll",
      "type": "event"
    },
    {
      "anonymous": false,
      "inputs": [
        {
          "indexed": false,
          "internalType": "address",
          "name": "sender",
          "type": "address"
        },
        {
          "indexed": false,
          "internalType": "uint256",
          "name": "tokenId",
          "type": "uint256"
        }
      ],
      "name": "NewNFTMinted",
      "type": "event"
    },
    {
      "anonymous": false,
      "inputs": [
        {
          "indexed": true,
          "internalType": "address",
          "name": "from",
          "type": "address"
        },
        {
          "indexed": true,
          "internalType": "address",
          "name": "to",
          "type": "address"
        },
        {
          "indexed": true,
          "internalType": "uint256",
          "name": "tokenId",
          "type": "uint256"
        }
      ],
      "name": "Transfer",
      "type": "event"
    },
    {
      "inputs": [
        {
          "internalType": "address",
          "name": "to",
          "type": "address"
        },
        {
          "internalType": "uint256",
          "name": "tokenId",
          "type": "uint256"
        }
      ],
      "name": "approve",
      "outputs": [],
      "stateMutability": "nonpayable",
      "type": "function"
    },
    {
      "inputs": [
        {
          "internalType": "address",
          "name": "owner",
          "type": "address"
        }
      ],
      "name": "balanceOf",
      "outputs": [
        {
          "internalType": "uint256",
          "name": "",
          "type": "uint256"
        }
      ],
      "stateMutability": "view",
      "type": "function"
    },
    {
      "inputs": [
        {
          "internalType": "uint256",
          "name": "tokenId",
          "type": "uint256"
        }
      ],
      "name": "findFirstWord",
      "outputs": [
        {
          "internalType": "string",
          "name": "",
          "type": "string"
        }
      ],
      "stateMutability": "view",
      "type": "function"
    },
    {
      "inputs": [
        {
          "internalType": "uint256",
          "name": "tokenId",
          "type": "uint256"
        }
      ],
      "name": "findRandomColour",
      "outputs": [
        {
          "internalType": "string",
          "name": "",
          "type": "string"
        }
      ],
      "stateMutability": "view",
      "type": "function"
    },
    {
      "inputs": [
        {
          "internalType": "uint256",
          "name": "tokenId",
          "type": "uint256"
        }
      ],
      "name": "findSecondWord",
      "outputs": [
        {
          "internalType": "string",
          "name": "",
          "type": "string"
        }
      ],
      "stateMutability": "view",
      "type": "function"
    },
    {
      "inputs": [
        {
          "internalType": "uint256",
          "name": "tokenId",
          "type": "uint256"
        }
      ],
      "name": "findThirdWord",
      "outputs": [
        {
          "internalType": "string",
          "name": "",
          "type": "string"
        }
      ],
      "stateMutability": "view",
      "type": "function"
    },
    {
      "inputs": [
        {
          "internalType": "uint256",
          "name": "tokenId",
          "type": "uint256"
        }
      ],
      "name": "getApproved",
      "outputs": [
        {
          "internalType": "address",
          "name": "",
          "type": "address"
        }
      ],
      "stateMutability": "view",
      "type": "function"
    },
    {
      "inputs": [],
      "name": "getNFTsMinted",
      "outputs": [
        {
          "internalType": "uint256",
          "name": "",
          "type": "uint256"
        }
      ],
      "stateMutability": "view",
      "type": "function"
    },
    {
      "inputs": [
        {
          "internalType": "address",
          "name": "owner",
          "type": "address"
        },
        {
          "internalType": "address",
          "name": "operator",
          "type": "address"
        }
      ],
      "name": "isApprovedForAll",
      "outputs": [
        {
          "internalType": "bool",
          "name": "",
          "type": "bool"
        }
      ],
      "stateMutability": "view",
      "type": "function"
    },
    {
      "inputs": [],
      "name": "makeAnEpicNFT",
      "outputs": [],
      "stateMutability": "nonpayable",
      "type": "function"
    },
    {
      "inputs": [],
      "name": "name",
      "outputs": [
        {
          "internalType": "string",
          "name": "",
          "type": "string"
        }
      ],
      "stateMutability": "view",
      "type": "function"
    },
    {
      "inputs": [
        {
          "internalType": "uint256",
          "name": "tokenId",
          "type": "uint256"
        }
      ],
      "name": "ownerOf",
      "outputs": [
        {
          "internalType": "address",
          "name": "",
          "type": "address"
        }
      ],
      "stateMutability": "view",
      "type": "function"
    },
    {
      "inputs": [
        {
          "internalType": "address",
          "name": "from",
          "type": "address"
        },
        {
          "internalType": "address",
          "name": "to",
          "type": "address"
        },
        {
          "internalType": "uint256",
          "name": "tokenId",
          "type": "uint256"
        }
      ],
      "name": "safeTransferFrom",
      "outputs": [],
      "stateMutability": "nonpayable",
      "type": "function"
    },
    {
      "inputs": [
        {
          "internalType": "address",
          "name": "from",
          "type": "address"
        },
        {
          "internalType": "address",
          "name": "to",
          "type": "address"
        },
        {
          "internalType": "uint256",
          "name": "tokenId",
          "type": "uint256"
        },
        {
          "internalType": "bytes",
          "name": "data",
          "type": "bytes"
        }
      ],
      "name": "safeTransferFrom",
      "outputs": [],
      "stateMutability": "nonpayable",
      "type": "function"
    },
    {
      "inputs": [
        {
          "internalType": "address",
          "name": "operator",
          "type": "address"
        },
        {
          "internalType": "bool",
          "name": "approved",
          "type": "bool"
        }
      ],
      "name": "setApprovalForAll",
      "outputs": [],
      "stateMutability": "nonpayable",
      "type": "function"
    },
    {
      "inputs": [
        {
          "internalType": "bytes4",
          "name": "interfaceId",
          "type": "bytes4"
        }
      ],
      "name": "supportsInterface",
      "outputs": [
        {
          "internalType": "bool",
          "name": "",
          "type": "bool"
        }
      ],
      "stateMutability": "view",
      "type": "function"
    },
    {
      "inputs": [],
      "name": "symbol",
      "outputs": [
        {
          "internalType": "string",
          "name": "",
          "type": "string"
        }
      ],
      "stateMutability": "view",
      "type": "function"
    },
    {
      "inputs": [
        {
          "internalType": "uint256",
          "name": "tokenId",
          "type": "uint256"
        }
      ],
      "name": "tokenURI",
      "outputs": [
        {
          "internalType": "string",
          "name": "",
          "type": "string"
        }
      ],
      "stateMutability": "view",
      "type": "function"
    },
    {
      "inputs": [
        {
          "internalType": "address",
          "name": "from",
          "type": "address"
        },
        {
          "internalType": "address",
          "name": "to",
          "type": "address"
        },
        {
          "internalType": "uint256",
          "name": "tokenId",
          "type": "uint256"
        }
      ],
      "name": "transferFrom",
      "outputs": [],
      "stateMutability": "nonpayable",
      "type": "function"
    }
  ],
  "bytecode": "0x6080604052601960085560405180610100016040528060d381526020016200452860d39139600990805190602001906200003b9291906200086c565b50604051806080016040528060568152602001620045fb60569139600a90805190602001906200006d9291906200086c565b506040518060c001604052806040518060400160405280600681526020017f4a616e69636b000000000000000000000000000000000000000000000000000081525081526020016040518060400160405280600481526020017f4b69726b0000000000000000000000000000000000000000000000000000000081525081526020016040518060400160405280600481526020017f546f6e790000000000000000000000000000000000000000000000000000000081525081526020016040518060400160405280600581526020017f536c61736800000000000000000000000000000000000000000000000000000081525081526020016040518060400160405280600781526020017f4d69636861656c0000000000000000000000000000000000000000000000000081525081526020016040518060400160405280600681526020017f42696c6c69650000000000000000000000000000000000000000000000000000815250815250600b906006620001eb929190620008fd565b506040518060c001604052806040518060400160405280600c81526020017f426c61636b53616262617468000000000000000000000000000000000000000081525081526020016040518060400160405280600b81526020017f5374657070656e776f6c6600000000000000000000000000000000000000000081525081526020016040518060400160405280600a81526020017f49726f6e4d616964656e0000000000000000000000000000000000000000000081525081526020016040518060400160405280600981526020017f4d6574616c6c696361000000000000000000000000000000000000000000000081525081526020016040518060400160405280600b81526020017f47756e734e27526f73657300000000000000000000000000000000000000000081525081526020016040518060400160405280600881526020017f477265656e446179000000000000000000000000000000000000000000000000815250815250600c90600662000369929190620008fd565b506040518060e001604052806040518060400160405280600781526020017f43757063616b650000000000000000000000000000000000000000000000000081525081526020016040518060400160405280600581526020017f50697a7a6100000000000000000000000000000000000000000000000000000081525081526020016040518060400160405280600981526020017f4d696c6b7368616b65000000000000000000000000000000000000000000000081525081526020016040518060400160405280600781526020017f436869636b656e0000000000000000000000000000000000000000000000000081525081526020016040518060400160405280600581526020017f437572727900000000000000000000000000000000000000000000000000000081525081526020016040518060400160405280600581526020017f53616c616400000000000000000000000000000000000000000000000000000081525081526020016040518060400160405280600881526020017f53616e6477696368000000000000000000000000000000000000000000000000815250815250600d9060076200052292919062000964565b506040518060c001604052806040518060400160405280600781526020017f233138333138320000000000000000000000000000000000000000000000000081525081526020016040518060400160405280600781526020017f233334303733640000000000000000000000000000000000000000000000000081525081526020016040518060400160405280600781526020017f236566373435630000000000000000000000000000000000000000000000000081525081526020016040518060400160405280600781526020017f233030376635660000000000000000000000000000000000000000000000000081525081526020016040518060400160405280600781526020017f233333333533330000000000000000000000000000000000000000000000000081525081526020016040518060400160405280600781526020017f2337323030323600000000000000000000000000000000000000000000000000815250815250600e906006620006a0929190620008fd565b50348015620006ae57600080fd5b506040518060400160405280600b81526020017f537175617265204e4654730000000000000000000000000000000000000000008152506040518060400160405280600381526020017f53515200000000000000000000000000000000000000000000000000000000008152508160009080519060200190620007339291906200086c565b5080600190805190602001906200074c9291906200086c565b5050506200079a6040518060400160405280601c81526020017f546869732069732061204e465420736d61727420636f6e747261637400000000815250620007a060201b6200122a1760201c565b62000b85565b6200084081604051602401620007b7919062000a99565b6040516020818303038152906040527f41304fac000000000000000000000000000000000000000000000000000000007bffffffffffffffffffffffffffffffffffffffffffffffffffffffff19166020820180517bffffffffffffffffffffffffffffffffffffffffffffffffffffffff83818316178352505050506200084360201b60201c565b50565b60008151905060006a636f6e736f6c652e6c6f679050602083016000808483855afa5050505050565b8280546200087a9062000b0f565b90600052602060002090601f0160209004810192826200089e5760008555620008ea565b82601f10620008b957805160ff1916838001178555620008ea565b82800160010185558215620008ea579182015b82811115620008e9578251825591602001919060010190620008cc565b5b509050620008f99190620009cb565b5090565b82805482825590600052602060002090810192821562000951579160200282015b82811115620009505782518290805190602001906200093f9291906200086c565b50916020019190600101906200091e565b5b509050620009609190620009ea565b5090565b828054828255906000526020600020908101928215620009b8579160200282015b82811115620009b7578251829080519060200190620009a69291906200086c565b509160200191906001019062000985565b5b509050620009c79190620009ea565b5090565b5b80821115620009e6576000816000905550600101620009cc565b5090565b5b8082111562000a0e576000818162000a04919062000a12565b50600101620009eb565b5090565b50805462000a209062000b0f565b6000825580601f1062000a34575062000a55565b601f01602090049060005260206000209081019062000a549190620009cb565b5b50565b600062000a658262000abd565b62000a71818562000ac8565b935062000a8381856020860162000ad9565b62000a8e8162000b74565b840191505092915050565b6000602082019050818103600083015262000ab5818462000a58565b905092915050565b600081519050919050565b600082825260208201905092915050565b60005b8381101562000af957808201518184015260208101905062000adc565b8381111562000b09576000848401525b50505050565b6000600282049050600182168062000b2857607f821691505b6020821081141562000b3f5762000b3e62000b45565b5b50919050565b7f4e487b7100000000000000000000000000000000000000000000000000000000600052602260045260246000fd5b6000601f19601f8301169050919050565b6139938062000b956000396000f3fe608060405234801561001057600080fd5b50600436106101215760003560e01c80636352211e116100ad578063c87b56dd11610071578063c87b56dd1461033e578063cdca00381461036e578063de9d132f1461038c578063e985e9c514610396578063f546d0d6146103c657610121565b80636352211e1461028857806370a08231146102b857806395d89b41146102e8578063a22cb46514610306578063b88d4fde1461032257610121565b806321d7ed38116100f457806321d7ed38146101c057806323b872dd146101f057806337b719b81461020c57806342842e0e1461023c5780635c5021d71461025857610121565b806301ffc9a71461012657806306fdde0314610156578063081812fc14610174578063095ea7b3146101a4575b600080fd5b610140600480360381019061013b9190612619565b6103f6565b60405161014d9190612d19565b60405180910390f35b61015e6104d8565b60405161016b9190612d34565b60405180910390f35b61018e6004803603810190610189919061266b565b61056a565b60405161019b9190612c89565b60405180910390f35b6101be60048036038101906101b991906125dd565b6105b0565b005b6101da60048036038101906101d5919061266b565b6106c8565b6040516101e79190612d34565b60405180910390f35b61020a600480360381019061020591906124d7565b6107e6565b005b6102266004803603810190610221919061266b565b610846565b6040516102339190612d34565b60405180910390f35b610256600480360381019061025191906124d7565b610964565b005b610272600480360381019061026d919061266b565b610984565b60405161027f9190612d34565b60405180910390f35b6102a2600480360381019061029d919061266b565b610aa2565b6040516102af9190612c89565b60405180910390f35b6102d260048036038101906102cd9190612472565b610b54565b6040516102df9190612f34565b60405180910390f35b6102f0610c0c565b6040516102fd9190612d34565b60405180910390f35b610320600480360381019061031b91906125a1565b610c9e565b005b61033c60048036038101906103379190612526565b610cb4565b005b6103586004803603810190610353919061266b565b610d16565b6040516103659190612d34565b60405180910390f35b610376610e29565b6040516103839190612f34565b60405180910390f35b610394610e3a565b005b6103b060048036038101906103ab919061249b565b611078565b6040516103bd9190612d19565b60405180910390f35b6103e060048036038101906103db919061266b565b61110c565b6040516103ed9190612d34565b60405180910390f35b60007f80ac58cd000000000000000000000000000000000000000000000000000000007bffffffffffffffffffffffffffffffffffffffffffffffffffffffff1916827bffffffffffffffffffffffffffffffffffffffffffffffffffffffff191614806104c157507f5b5e139f000000000000000000000000000000000000000000000000000000007bffffffffffffffffffffffffffffffffffffffffffffffffffffffff1916827bffffffffffffffffffffffffffffffffffffffffffffffffffffffff1916145b806104d157506104d0826112c3565b5b9050919050565b6060600080546104e7906131c8565b80601f0160208091040260200160405190810160405280929190818152602001828054610513906131c8565b80156105605780601f1061053557610100808354040283529160200191610560565b820191906000526020600020905b81548152906001019060200180831161054357829003601f168201915b5050505050905090565b60006105758261132d565b6004600083815260200190815260200160002060009054906101000a900473ffffffffffffffffffffffffffffffffffffffff169050919050565b60006105bb82610aa2565b90508073ffffffffffffffffffffffffffffffffffffffff168373ffffffffffffffffffffffffffffffffffffffff16141561062c576040517f08c379a000000000000000000000000000000000000000000000000000000000815260040161062390612ef4565b60405180910390fd5b8073ffffffffffffffffffffffffffffffffffffffff1661064b611378565b73ffffffffffffffffffffffffffffffffffffffff16148061067a575061067981610674611378565b611078565b5b6106b9576040517f08c379a00000000000000000000000000000000000000000000000000000000081526004016106b090612e74565b60405180910390fd5b6106c38383611380565b505050565b606060006106fc6106d884611439565b6040516020016106e89190612b9a565b6040516020818303038152906040526115e6565b9050600d805490508161070f9190613274565b9050600d818154811061074b577f4e487b7100000000000000000000000000000000000000000000000000000000600052603260045260246000fd5b906000526020600020018054610760906131c8565b80601f016020809104026020016040519081016040528092919081815260200182805461078c906131c8565b80156107d95780601f106107ae576101008083540402835291602001916107d9565b820191906000526020600020905b8154815290600101906020018083116107bc57829003601f168201915b5050505050915050919050565b6107f76107f1611378565b82611619565b610836576040517f08c379a000000000000000000000000000000000000000000000000000000000815260040161082d90612f14565b60405180910390fd5b6108418383836116ae565b505050565b6060600061087a61085684611439565b6040516020016108669190612bbc565b6040516020818303038152906040526115e6565b9050600c805490508161088d9190613274565b9050600c81815481106108c9577f4e487b7100000000000000000000000000000000000000000000000000000000600052603260045260246000fd5b9060005260206000200180546108de906131c8565b80601f016020809104026020016040519081016040528092919081815260200182805461090a906131c8565b80156109575780601f1061092c57610100808354040283529160200191610957565b820191906000526020600020905b81548152906001019060200180831161093a57829003601f168201915b5050505050915050919050565b61097f83838360405180602001604052806000815250610cb4565b505050565b606060006109b861099484611439565b6040516020016109a49190612c23565b6040516020818303038152906040526115e6565b9050600b80549050816109cb9190613274565b9050600b8181548110610a07577f4e487b7100000000000000000000000000000000000000000000000000000000600052603260045260246000fd5b906000526020600020018054610a1c906131c8565b80601f0160208091040260200160405190810160405280929190818152602001828054610a48906131c8565b8015610a955780601f10610a6a57610100808354040283529160200191610a95565b820191906000526020600020905b815481529060010190602001808311610a7857829003601f168201915b5050505050915050919050565b6000806002600084815260200190815260200160002060009054906101000a900473ffffffffffffffffffffffffffffffffffffffff169050600073ffffffffffffffffffffffffffffffffffffffff168173ffffffffffffffffffffffffffffffffffffffff161415610b4b576040517f08c379a0000000000000000000000000000000000000000000000000000000008152600401610b4290612ed4565b60405180910390fd5b80915050919050565b60008073ffffffffffffffffffffffffffffffffffffffff168273ffffffffffffffffffffffffffffffffffffffff161415610bc5576040517f08c379a0000000000000000000000000000000000000000000000000000000008152600401610bbc90612e34565b60405180910390fd5b600360008373ffffffffffffffffffffffffffffffffffffffff1673ffffffffffffffffffffffffffffffffffffffff168152602001908152602001600020549050919050565b606060018054610c1b906131c8565b80601f0160208091040260200160405190810160405280929190818152602001828054610c47906131c8565b8015610c945780601f10610c6957610100808354040283529160200191610c94565b820191906000526020600020905b815481529060010190602001808311610c7757829003601f168201915b5050505050905090565b610cb0610ca9611378565b8383611915565b5050565b610cc5610cbf611378565b83611619565b610d04576040517f08c379a0000000000000000000000000000000000000000000000000000000008152600401610cfb90612f14565b60405180910390fd5b610d1084848484611a82565b50505050565b6060610d218261132d565b6000600660008481526020019081526020016000208054610d41906131c8565b80601f0160208091040260200160405190810160405280929190818152602001828054610d6d906131c8565b8015610dba5780601f10610d8f57610100808354040283529160200191610dba565b820191906000526020600020905b815481529060010190602001808311610d9d57829003601f168201915b505050505090506000610dcb611ade565b9050600081511415610de1578192505050610e24565b600082511115610e16578082604051602001610dfe929190612afc565b60405160208183030381529060405292505050610e24565b610e1f84611af5565b925050505b919050565b6000610e356007611b5d565b905090565b6000610e466007611b5d565b90506008548110610e8c576040517f08c379a0000000000000000000000000000000000000000000000000000000008152600401610e8390612eb4565b60405180910390fd5b6000610e9782610984565b90506000610ea483610846565b90506000610eb1846106c8565b90506000610ebe8561110c565b90506000848484604051602001610ed793929190612b20565b60405160208183030381529060405290506000600983600a84604051602001610f039493929190612b51565b60405160208183030381529060405290506000610f4883610f2384611b6b565b604051602001610f34929190612bde565b604051602081830303815290604052611b6b565b9050600081604051602001610f5d9190612c45565b6040516020818303038152906040529050610fac6040518060400160405280601581526020017f0a2d2d2d2d2d2d2d2d2d2d2d2d2d2d2d2d2d2d2d2d000000000000000000000081525061122a565b610fb58161122a565b610ff36040518060400160405280601581526020017f0a2d2d2d2d2d2d2d2d2d2d2d2d2d2d2d2d2d2d2d2d000000000000000000000081525061122a565b610ffd338a611d29565b6110078982611d47565b61102a604051806060016040528060278152602001613937602791398a33611dbb565b6110346007611e5a565b7f1c05098ed1ff38e6238d2b1b04b2c7977d4c94ce651bda6473f9dba8dbf01da0338a604051611065929190612cf0565b60405180910390a1505050505050505050565b6000600560008473ffffffffffffffffffffffffffffffffffffffff1673ffffffffffffffffffffffffffffffffffffffff16815260200190815260200160002060008373ffffffffffffffffffffffffffffffffffffffff1673ffffffffffffffffffffffffffffffffffffffff16815260200190815260200160002060009054906101000a900460ff16905092915050565b6060600061114061111c84611439565b60405160200161112c9190612c67565b6040516020818303038152906040526115e6565b9050600e80549050816111539190613274565b9050600e818154811061118f577f4e487b7100000000000000000000000000000000000000000000000000000000600052603260045260246000fd5b9060005260206000200180546111a4906131c8565b80601f01602080910402602001604051908101604052809291908181526020018280546111d0906131c8565b801561121d5780601f106111f25761010080835404028352916020019161121d565b820191906000526020600020905b81548152906001019060200180831161120057829003601f168201915b5050505050915050919050565b6112c08160405160240161123e9190612d34565b6040516020818303038152906040527f41304fac000000000000000000000000000000000000000000000000000000007bffffffffffffffffffffffffffffffffffffffffffffffffffffffff19166020820180517bffffffffffffffffffffffffffffffffffffffffffffffffffffffff8381831617835250505050611e70565b50565b60007f01ffc9a7000000000000000000000000000000000000000000000000000000007bffffffffffffffffffffffffffffffffffffffffffffffffffffffff1916827bffffffffffffffffffffffffffffffffffffffffffffffffffffffff1916149050919050565b61133681611e99565b611375576040517f08c379a000000000000000000000000000000000000000000000000000000000815260040161136c90612ed4565b60405180910390fd5b50565b600033905090565b816004600083815260200190815260200160002060006101000a81548173ffffffffffffffffffffffffffffffffffffffff021916908373ffffffffffffffffffffffffffffffffffffffff160217905550808273ffffffffffffffffffffffffffffffffffffffff166113f383610aa2565b73ffffffffffffffffffffffffffffffffffffffff167f8c5be1e5ebec7d5bd14f71427d1e84f3dd0314c0f7b2291e5b200ac8c7c3b92560405160405180910390a45050565b60606000821415611481576040518060400160405280600181526020017f300000000000000000000000000000000000000000000000000000000000000081525090506115e1565b600082905060005b600082146114b357808061149c9061322b565b915050600a826114ac9190613053565b9150611489565b60008167ffffffffffffffff8111156114f5577f4e487b7100000000000000000000000000000000000000000000000000000000600052604160045260246000fd5b6040519080825280601f01601f1916602001820160405280156115275781602001600182028036833780820191505090505b5090505b600085146115da5760018261154091906130de565b9150600a8561154f9190613274565b603061155b9190612ffd565b60f81b818381518110611597577f4e487b7100000000000000000000000000000000000000000000000000000000600052603260045260246000fd5b60200101907effffffffffffffffffffffffffffffffffffffffffffffffffffffffffffff1916908160001a905350600a856115d39190613053565b945061152b565b8093505050505b919050565b6000816040516020016115f99190612ae5565b6040516020818303038152906040528051906020012060001c9050919050565b60008061162583610aa2565b90508073ffffffffffffffffffffffffffffffffffffffff168473ffffffffffffffffffffffffffffffffffffffff16148061166757506116668185611078565b5b806116a557508373ffffffffffffffffffffffffffffffffffffffff1661168d8461056a565b73ffffffffffffffffffffffffffffffffffffffff16145b91505092915050565b8273ffffffffffffffffffffffffffffffffffffffff166116ce82610aa2565b73ffffffffffffffffffffffffffffffffffffffff1614611724576040517f08c379a000000000000000000000000000000000000000000000000000000000815260040161171b90612db4565b60405180910390fd5b600073ffffffffffffffffffffffffffffffffffffffff168273ffffffffffffffffffffffffffffffffffffffff161415611794576040517f08c379a000000000000000000000000000000000000000000000000000000000815260040161178b90612df4565b60405180910390fd5b61179f838383611f05565b6117aa600082611380565b6001600360008573ffffffffffffffffffffffffffffffffffffffff1673ffffffffffffffffffffffffffffffffffffffff16815260200190815260200160002060008282546117fa91906130de565b925050819055506001600360008473ffffffffffffffffffffffffffffffffffffffff1673ffffffffffffffffffffffffffffffffffffffff16815260200190815260200160002060008282546118519190612ffd565b92505081905550816002600083815260200190815260200160002060006101000a81548173ffffffffffffffffffffffffffffffffffffffff021916908373ffffffffffffffffffffffffffffffffffffffff160217905550808273ffffffffffffffffffffffffffffffffffffffff168473ffffffffffffffffffffffffffffffffffffffff167fddf252ad1be2c89b69c2b068fc378daa952ba7f163c4a11628f55a4df523b3ef60405160405180910390a4611910838383611f0a565b505050565b8173ffffffffffffffffffffffffffffffffffffffff168373ffffffffffffffffffffffffffffffffffffffff161415611984576040517f08c379a000000000000000000000000000000000000000000000000000000000815260040161197b90612e14565b60405180910390fd5b80600560008573ffffffffffffffffffffffffffffffffffffffff1673ffffffffffffffffffffffffffffffffffffffff16815260200190815260200160002060008473ffffffffffffffffffffffffffffffffffffffff1673ffffffffffffffffffffffffffffffffffffffff16815260200190815260200160002060006101000a81548160ff0219169083151502179055508173ffffffffffffffffffffffffffffffffffffffff168373ffffffffffffffffffffffffffffffffffffffff167f17307eab39ab6107e8899845ad3d59bd9653f200f220920489ca2b5937696c3183604051611a759190612d19565b60405180910390a3505050565b611a8d8484846116ae565b611a9984848484611f0f565b611ad8576040517f08c379a0000000000000000000000000000000000000000000000000000000008152600401611acf90612d94565b60405180910390fd5b50505050565b606060405180602001604052806000815250905090565b6060611b008261132d565b6000611b0a611ade565b90506000815111611b2a5760405180602001604052806000815250611b55565b80611b3484611439565b604051602001611b45929190612afc565b6040516020818303038152906040525b915050919050565b600081600001549050919050565b60606000825190506000811415611b945760405180602001604052806000815250915050611d24565b60006003600283611ba59190612ffd565b611baf9190613053565b6004611bbb9190613084565b90506000602082611bcc9190612ffd565b67ffffffffffffffff811115611c0b577f4e487b7100000000000000000000000000000000000000000000000000000000600052604160045260246000fd5b6040519080825280601f01601f191660200182016040528015611c3d5781602001600182028036833780820191505090505b50905060006040518060600160405280604081526020016138f7604091399050600181016020830160005b86811015611ce15760038101905062ffffff818a015116603f8160121c168401518060081b905060ff603f83600c1c1686015116810190508060081b905060ff603f8360061c1686015116810190508060081b905060ff603f831686015116810190508060e01b90508084526004840193505050611c68565b506003860660018114611cfb5760028114611d0b57611d16565b613d3d60f01b6002830352611d16565b603d60f81b60018303525b508484525050819450505050505b919050565b611d438282604051806020016040528060008152506120a6565b5050565b611d5082611e99565b611d8f576040517f08c379a0000000000000000000000000000000000000000000000000000000008152600401611d8690612e54565b60405180910390fd5b80600660008481526020019081526020016000209080519060200190611db69291906122fe565b505050565b611e55838383604051602401611dd393929190612d56565b6040516020818303038152906040527fe3849f79000000000000000000000000000000000000000000000000000000007bffffffffffffffffffffffffffffffffffffffffffffffffffffffff19166020820180517bffffffffffffffffffffffffffffffffffffffffffffffffffffffff8381831617835250505050611e70565b505050565b6001816000016000828254019250508190555050565b60008151905060006a636f6e736f6c652e6c6f679050602083016000808483855afa5050505050565b60008073ffffffffffffffffffffffffffffffffffffffff166002600084815260200190815260200160002060009054906101000a900473ffffffffffffffffffffffffffffffffffffffff1673ffffffffffffffffffffffffffffffffffffffff1614159050919050565b505050565b505050565b6000611f308473ffffffffffffffffffffffffffffffffffffffff16612101565b15612099578373ffffffffffffffffffffffffffffffffffffffff1663150b7a02611f59611378565b8786866040518563ffffffff1660e01b8152600401611f7b9493929190612ca4565b602060405180830381600087803b158015611f9557600080fd5b505af1925050508015611fc657506040513d601f19601f82011682018060405250810190611fc39190612642565b60015b612049573d8060008114611ff6576040519150601f19603f3d011682016040523d82523d6000602084013e611ffb565b606091505b50600081511415612041576040517f08c379a000000000000000000000000000000000000000000000000000000000815260040161203890612d94565b60405180910390fd5b805181602001fd5b63150b7a0260e01b7bffffffffffffffffffffffffffffffffffffffffffffffffffffffff1916817bffffffffffffffffffffffffffffffffffffffffffffffffffffffff19161491505061209e565b600190505b949350505050565b6120b08383612124565b6120bd6000848484611f0f565b6120fc576040517f08c379a00000000000000000000000000000000000000000000000000000000081526004016120f390612d94565b60405180910390fd5b505050565b6000808273ffffffffffffffffffffffffffffffffffffffff163b119050919050565b600073ffffffffffffffffffffffffffffffffffffffff168273ffffffffffffffffffffffffffffffffffffffff161415612194576040517f08c379a000000000000000000000000000000000000000000000000000000000815260040161218b90612e94565b60405180910390fd5b61219d81611e99565b156121dd576040517f08c379a00000000000000000000000000000000000000000000000000000000081526004016121d490612dd4565b60405180910390fd5b6121e960008383611f05565b6001600360008473ffffffffffffffffffffffffffffffffffffffff1673ffffffffffffffffffffffffffffffffffffffff16815260200190815260200160002060008282546122399190612ffd565b92505081905550816002600083815260200190815260200160002060006101000a81548173ffffffffffffffffffffffffffffffffffffffff021916908373ffffffffffffffffffffffffffffffffffffffff160217905550808273ffffffffffffffffffffffffffffffffffffffff16600073ffffffffffffffffffffffffffffffffffffffff167fddf252ad1be2c89b69c2b068fc378daa952ba7f163c4a11628f55a4df523b3ef60405160405180910390a46122fa60008383611f0a565b5050565b82805461230a906131c8565b90600052602060002090601f01602090048101928261232c5760008555612373565b82601f1061234557805160ff1916838001178555612373565b82800160010185558215612373579182015b82811115612372578251825591602001919060010190612357565b5b5090506123809190612384565b5090565b5b8082111561239d576000816000905550600101612385565b5090565b60006123b46123af84612f74565b612f4f565b9050828152602081018484840111156123cc57600080fd5b6123d7848285613186565b509392505050565b6000813590506123ee8161389a565b92915050565b600081359050612403816138b1565b92915050565b600081359050612418816138c8565b92915050565b60008151905061242d816138c8565b92915050565b600082601f83011261244457600080fd5b81356124548482602086016123a1565b91505092915050565b60008135905061246c816138df565b92915050565b60006020828403121561248457600080fd5b6000612492848285016123df565b91505092915050565b600080604083850312156124ae57600080fd5b60006124bc858286016123df565b92505060206124cd858286016123df565b9150509250929050565b6000806000606084860312156124ec57600080fd5b60006124fa868287016123df565b935050602061250b868287016123df565b925050604061251c8682870161245d565b9150509250925092565b6000806000806080858703121561253c57600080fd5b600061254a878288016123df565b945050602061255b878288016123df565b935050604061256c8782880161245d565b925050606085013567ffffffffffffffff81111561258957600080fd5b61259587828801612433565b91505092959194509250565b600080604083850312156125b457600080fd5b60006125c2858286016123df565b92505060206125d3858286016123f4565b9150509250929050565b600080604083850312156125f057600080fd5b60006125fe858286016123df565b925050602061260f8582860161245d565b9150509250929050565b60006020828403121561262b57600080fd5b600061263984828501612409565b91505092915050565b60006020828403121561265457600080fd5b60006126628482850161241e565b91505092915050565b60006020828403121561267d57600080fd5b600061268b8482850161245d565b91505092915050565b61269d81613112565b82525050565b6126ac81613124565b82525050565b60006126bd82612fba565b6126c78185612fd0565b93506126d7818560208601613195565b6126e081613361565b840191505092915050565b60006126f682612fc5565b6127008185612fe1565b9350612710818560208601613195565b61271981613361565b840191505092915050565b600061272f82612fc5565b6127398185612ff2565b9350612749818560208601613195565b80840191505092915050565b60008154612762816131c8565b61276c8186612ff2565b945060018216600081146127875760018114612798576127cb565b60ff198316865281860193506127cb565b6127a185612fa5565b60005b838110156127c3578154818901526001820191506020810190506127a4565b838801955050505b50505092915050565b60006127e1603283612fe1565b91506127ec82613372565b604082019050919050565b6000612804602583612fe1565b915061280f826133c1565b604082019050919050565b6000612827601c83612fe1565b915061283282613410565b602082019050919050565b600061284a600a83612ff2565b915061285582613439565b600a82019050919050565b600061286d602483612fe1565b915061287882613462565b604082019050919050565b6000612890601983612fe1565b915061289b826134b1565b602082019050919050565b60006128b3606383612ff2565b91506128be826134da565b606382019050919050565b60006128d6600b83612ff2565b91506128e182613575565b600b82019050919050565b60006128f9600d83612ff2565b91506129048261359e565b600d82019050919050565b600061291c602983612fe1565b9150612927826135c7565b604082019050919050565b600061293f602e83612fe1565b915061294a82613616565b604082019050919050565b6000612962600283612ff2565b915061296d82613665565b600282019050919050565b6000612985603e83612fe1565b91506129908261368e565b604082019050919050565b60006129a8602083612fe1565b91506129b3826136dd565b602082019050919050565b60006129cb601383612fe1565b91506129d682613706565b602082019050919050565b60006129ee600a83612ff2565b91506129f98261372f565b600a82019050919050565b6000612a11601883612fe1565b9150612a1c82613758565b602082019050919050565b6000612a34602183612fe1565b9150612a3f82613781565b604082019050919050565b6000612a57600a83612ff2565b9150612a62826137d0565b600a82019050919050565b6000612a7a601d83612ff2565b9150612a85826137f9565b601d82019050919050565b6000612a9d602e83612fe1565b9150612aa882613822565b604082019050919050565b6000612ac0600783612ff2565b9150612acb82613871565b600782019050919050565b612adf8161317c565b82525050565b6000612af18284612724565b915081905092915050565b6000612b088285612724565b9150612b148284612724565b91508190509392505050565b6000612b2c8286612724565b9150612b388285612724565b9150612b448284612724565b9150819050949350505050565b6000612b5d8287612755565b9150612b698286612724565b9150612b758285612755565b9150612b818284612724565b9150612b8c826128ec565b915081905095945050505050565b6000612ba58261283d565b9150612bb18284612724565b915081905092915050565b6000612bc7826128c9565b9150612bd38284612724565b915081905092915050565b6000612be9826129e1565b9150612bf58285612724565b9150612c00826128a6565b9150612c0c8284612724565b9150612c1782612955565b91508190509392505050565b6000612c2e82612a4a565b9150612c3a8284612724565b915081905092915050565b6000612c5082612a6d565b9150612c5c8284612724565b915081905092915050565b6000612c7282612ab3565b9150612c7e8284612724565b915081905092915050565b6000602082019050612c9e6000830184612694565b92915050565b6000608082019050612cb96000830187612694565b612cc66020830186612694565b612cd36040830185612ad6565b8181036060830152612ce581846126b2565b905095945050505050565b6000604082019050612d056000830185612694565b612d126020830184612ad6565b9392505050565b6000602082019050612d2e60008301846126a3565b92915050565b60006020820190508181036000830152612d4e81846126eb565b905092915050565b60006060820190508181036000830152612d7081866126eb565b9050612d7f6020830185612ad6565b612d8c6040830184612694565b949350505050565b60006020820190508181036000830152612dad816127d4565b9050919050565b60006020820190508181036000830152612dcd816127f7565b9050919050565b60006020820190508181036000830152612ded8161281a565b9050919050565b60006020820190508181036000830152612e0d81612860565b9050919050565b60006020820190508181036000830152612e2d81612883565b9050919050565b60006020820190508181036000830152612e4d8161290f565b9050919050565b60006020820190508181036000830152612e6d81612932565b9050919050565b60006020820190508181036000830152612e8d81612978565b9050919050565b60006020820190508181036000830152612ead8161299b565b9050919050565b60006020820190508181036000830152612ecd816129be565b9050919050565b60006020820190508181036000830152612eed81612a04565b9050919050565b60006020820190508181036000830152612f0d81612a27565b9050919050565b60006020820190508181036000830152612f2d81612a90565b9050919050565b6000602082019050612f496000830184612ad6565b92915050565b6000612f59612f6a565b9050612f6582826131fa565b919050565b6000604051905090565b600067ffffffffffffffff821115612f8f57612f8e613332565b5b612f9882613361565b9050602081019050919050565b60008190508160005260206000209050919050565b600081519050919050565b600081519050919050565b600082825260208201905092915050565b600082825260208201905092915050565b600081905092915050565b60006130088261317c565b91506130138361317c565b9250827fffffffffffffffffffffffffffffffffffffffffffffffffffffffffffffffff03821115613048576130476132a5565b5b828201905092915050565b600061305e8261317c565b91506130698361317c565b925082613079576130786132d4565b5b828204905092915050565b600061308f8261317c565b915061309a8361317c565b9250817fffffffffffffffffffffffffffffffffffffffffffffffffffffffffffffffff04831182151516156130d3576130d26132a5565b5b828202905092915050565b60006130e98261317c565b91506130f48361317c565b925082821015613107576131066132a5565b5b828203905092915050565b600061311d8261315c565b9050919050565b60008115159050919050565b60007fffffffff0000000000000000000000000000000000000000000000000000000082169050919050565b600073ffffffffffffffffffffffffffffffffffffffff82169050919050565b6000819050919050565b82818337600083830152505050565b60005b838110156131b3578082015181840152602081019050613198565b838111156131c2576000848401525b50505050565b600060028204905060018216806131e057607f821691505b602082108114156131f4576131f3613303565b5b50919050565b61320382613361565b810181811067ffffffffffffffff8211171561322257613221613332565b5b80604052505050565b60006132368261317c565b91507fffffffffffffffffffffffffffffffffffffffffffffffffffffffffffffffff821415613269576132686132a5565b5b600182019050919050565b600061327f8261317c565b915061328a8361317c565b92508261329a576132996132d4565b5b828206905092915050565b7f4e487b7100000000000000000000000000000000000000000000000000000000600052601160045260246000fd5b7f4e487b7100000000000000000000000000000000000000000000000000000000600052601260045260246000fd5b7f4e487b7100000000000000000000000000000000000000000000000000000000600052602260045260246000fd5b7f4e487b7100000000000000000000000000000000000000000000000000000000600052604160045260246000fd5b6000601f19601f8301169050919050565b7f4552433732313a207472616e7366657220746f206e6f6e20455243373231526560008201527f63656976657220696d706c656d656e7465720000000000000000000000000000602082015250565b7f4552433732313a207472616e736665722066726f6d20696e636f72726563742060008201527f6f776e6572000000000000000000000000000000000000000000000000000000602082015250565b7f4552433732313a20746f6b656e20616c7265616479206d696e74656400000000600082015250565b7f54484952445f574f524400000000000000000000000000000000000000000000600082015250565b7f4552433732313a207472616e7366657220746f20746865207a65726f2061646460008201527f7265737300000000000000000000000000000000000000000000000000000000602082015250565b7f4552433732313a20617070726f766520746f2063616c6c657200000000000000600082015250565b7f222c20226465736372697074696f6e223a20224120686967686c79206163636c60008201527f61696d656420636f6c6c656374696f6e206f6620737175617265732e222c202260208201527f696d616765223a2022646174613a696d6167652f7376672b786d6c3b6261736560408201527f36342c0000000000000000000000000000000000000000000000000000000000606082015250565b7f5345434f4e445f574f5244000000000000000000000000000000000000000000600082015250565b7f3c2f746578743e3c2f7376673e00000000000000000000000000000000000000600082015250565b7f4552433732313a2061646472657373207a65726f206973206e6f74206120766160008201527f6c6964206f776e65720000000000000000000000000000000000000000000000602082015250565b7f45524337323155524953746f726167653a2055524920736574206f66206e6f6e60008201527f6578697374656e7420746f6b656e000000000000000000000000000000000000602082015250565b7f227d000000000000000000000000000000000000000000000000000000000000600082015250565b7f4552433732313a20617070726f76652063616c6c6572206973206e6f7420746f60008201527f6b656e206f776e6572206e6f7220617070726f76656420666f7220616c6c0000602082015250565b7f4552433732313a206d696e7420746f20746865207a65726f2061646472657373600082015250565b7f4e465473206c696d697420657863656564656400000000000000000000000000600082015250565b7f7b226e616d65223a202200000000000000000000000000000000000000000000600082015250565b7f4552433732313a20696e76616c696420746f6b656e2049440000000000000000600082015250565b7f4552433732313a20617070726f76616c20746f2063757272656e74206f776e6560008201527f7200000000000000000000000000000000000000000000000000000000000000602082015250565b7f46495253545f574f524400000000000000000000000000000000000000000000600082015250565b7f646174613a6170706c69636174696f6e2f6a736f6e3b6261736536342c000000600082015250565b7f4552433732313a2063616c6c6572206973206e6f7420746f6b656e206f776e6560008201527f72206e6f7220617070726f766564000000000000000000000000000000000000602082015250565b7f434f4c4f55525300000000000000000000000000000000000000000000000000600082015250565b6138a381613112565b81146138ae57600080fd5b50565b6138ba81613124565b81146138c557600080fd5b50565b6138d181613130565b81146138dc57600080fd5b50565b6138e88161317c565b81146138f357600080fd5b5056fe4142434445464748494a4b4c4d4e4f505152535455565758595a6162636465666768696a6b6c6d6e6f707172737475767778797a303132333435363738392b2f416e204e4654207769746820494420257320686173206265656e206d696e74656420746f202573a2646970667358221220296e5a82c9323389645fbf2afdad7044b9c21ad94ddf7e7c7d09b27462e651d664736f6c634300080100333c73766720786d6c6e733d27687474703a2f2f7777772e77332e6f72672f323030302f73766727207072657365727665417370656374526174696f3d27784d696e594d696e206d656574272076696577426f783d273020302033353020333530273e3c7374796c653e2e62617365207b2066696c6c3a2077686974653b20666f6e742d66616d696c793a2073657269663b20666f6e742d73697a653a20323470783b207d3c2f7374796c653e3c726563742077696474683d273130302527206865696768743d2731303025272066696c6c3d27272f3e3c7465787420783d273530252720793d273530252720636c6173733d27626173652720646f6d696e616e742d626173656c696e653d276d6964646c652720746578742d616e63686f723d276d6964646c65273e",
  "linkReferences": {},
  "deployedLinkReferences": {}
}