{
    "_format": "hh-sol-artifact-1",
    "contractName": "MyEpicNFT",
    "sourceName": "contracts/MyEpicNFT.sol",
    "abi": [
        {
            "inputs": [],
            "stateMutability": "nonpayable",
            "type": "constructor"
        },
        {
            "anonymous": false,
            "inputs": [
                {
                    "indexed": true,
                    "internalType": "address",
                    "name": "owner",
                    "type": "address"
                },
                {
                    "indexed": true,
                    "internalType": "address",
                    "name": "approved",
                    "type": "address"
                },
                {
                    "indexed": true,
                    "internalType": "uint256",
                    "name": "tokenId",
                    "type": "uint256"
                }
            ],
            "name": "Approval",
            "type": "event"
        },
        {
            "anonymous": false,
            "inputs": [
                {
                    "indexed": true,
                    "internalType": "address",
                    "name": "owner",
                    "type": "address"
                },
                {
                    "indexed": true,
                    "internalType": "address",
                    "name": "operator",
                    "type": "address"
                },
                {
                    "indexed": false,
                    "internalType": "bool",
                    "name": "approved",
                    "type": "bool"
                }
            ],
            "name": "ApprovalForAll",
            "type": "event"
        },
        {
            "anonymous": false,
            "inputs": [
                {
                    "indexed": true,
                    "internalType": "address",
                    "name": "from",
                    "type": "address"
                },
                {
                    "indexed": true,
                    "internalType": "address",
                    "name": "to",
                    "type": "address"
                },
                {
                    "indexed": true,
                    "internalType": "uint256",
                    "name": "tokenId",
                    "type": "uint256"
                }
            ],
            "name": "Transfer",
            "type": "event"
        },
        {
            "inputs": [
                {
                    "internalType": "address",
                    "name": "to",
                    "type": "address"
                },
                {
                    "internalType": "uint256",
                    "name": "tokenId",
                    "type": "uint256"
                }
            ],
            "name": "approve",
            "outputs": [],
            "stateMutability": "nonpayable",
            "type": "function"
        },
        {
            "inputs": [
                {
                    "internalType": "address",
                    "name": "owner",
                    "type": "address"
                }
            ],
            "name": "balanceOf",
            "outputs": [
                {
                    "internalType": "uint256",
                    "name": "",
                    "type": "uint256"
                }
            ],
            "stateMutability": "view",
            "type": "function"
        },
        {
            "inputs": [
                {
                    "internalType": "uint256",
                    "name": "tokenId",
                    "type": "uint256"
                }
            ],
            "name": "findFirstWord",
            "outputs": [
                {
                    "internalType": "string",
                    "name": "",
                    "type": "string"
                }
            ],
            "stateMutability": "view",
            "type": "function"
        },
        {
            "inputs": [
                {
                    "internalType": "uint256",
                    "name": "tokenId",
                    "type": "uint256"
                }
            ],
            "name": "findRandomColor",
            "outputs": [
                {
                    "internalType": "string",
                    "name": "",
                    "type": "string"
                }
            ],
            "stateMutability": "view",
            "type": "function"
        },
        {
            "inputs": [
                {
                    "internalType": "uint256",
                    "name": "tokenId",
                    "type": "uint256"
                }
            ],
            "name": "findSecondWord",
            "outputs": [
                {
                    "internalType": "string",
                    "name": "",
                    "type": "string"
                }
            ],
            "stateMutability": "view",
            "type": "function"
        },
        {
            "inputs": [
                {
                    "internalType": "uint256",
                    "name": "tokenId",
                    "type": "uint256"
                }
            ],
            "name": "findThirdWord",
            "outputs": [
                {
                    "internalType": "string",
                    "name": "",
                    "type": "string"
                }
            ],
            "stateMutability": "view",
            "type": "function"
        },
        {
            "inputs": [
                {
                    "internalType": "uint256",
                    "name": "tokenId",
                    "type": "uint256"
                }
            ],
            "name": "getApproved",
            "outputs": [
                {
                    "internalType": "address",
                    "name": "",
                    "type": "address"
                }
            ],
            "stateMutability": "view",
            "type": "function"
        },
        {
            "inputs": [
                {
                    "internalType": "address",
                    "name": "owner",
                    "type": "address"
                },
                {
                    "internalType": "address",
                    "name": "operator",
                    "type": "address"
                }
            ],
            "name": "isApprovedForAll",
            "outputs": [
                {
                    "internalType": "bool",
                    "name": "",
                    "type": "bool"
                }
            ],
            "stateMutability": "view",
            "type": "function"
        },
        {
            "inputs": [],
            "name": "makeAnEpicNFT",
            "outputs": [],
            "stateMutability": "nonpayable",
            "type": "function"
        },
        {
            "inputs": [],
            "name": "name",
            "outputs": [
                {
                    "internalType": "string",
                    "name": "",
                    "type": "string"
                }
            ],
            "stateMutability": "view",
            "type": "function"
        },
        {
            "inputs": [
                {
                    "internalType": "uint256",
                    "name": "tokenId",
                    "type": "uint256"
                }
            ],
            "name": "ownerOf",
            "outputs": [
                {
                    "internalType": "address",
                    "name": "",
                    "type": "address"
                }
            ],
            "stateMutability": "view",
            "type": "function"
        },
        {
            "inputs": [
                {
                    "internalType": "address",
                    "name": "from",
                    "type": "address"
                },
                {
                    "internalType": "address",
                    "name": "to",
                    "type": "address"
                },
                {
                    "internalType": "uint256",
                    "name": "tokenId",
                    "type": "uint256"
                }
            ],
            "name": "safeTransferFrom",
            "outputs": [],
            "stateMutability": "nonpayable",
            "type": "function"
        },
        {
            "inputs": [
                {
                    "internalType": "address",
                    "name": "from",
                    "type": "address"
                },
                {
                    "internalType": "address",
                    "name": "to",
                    "type": "address"
                },
                {
                    "internalType": "uint256",
                    "name": "tokenId",
                    "type": "uint256"
                },
                {
                    "internalType": "bytes",
                    "name": "data",
                    "type": "bytes"
                }
            ],
            "name": "safeTransferFrom",
            "outputs": [],
            "stateMutability": "nonpayable",
            "type": "function"
        },
        {
            "inputs": [
                {
                    "internalType": "address",
                    "name": "operator",
                    "type": "address"
                },
                {
                    "internalType": "bool",
                    "name": "approved",
                    "type": "bool"
                }
            ],
            "name": "setApprovalForAll",
            "outputs": [],
            "stateMutability": "nonpayable",
            "type": "function"
        },
        {
            "inputs": [
                {
                    "internalType": "bytes4",
                    "name": "interfaceId",
                    "type": "bytes4"
                }
            ],
            "name": "supportsInterface",
            "outputs": [
                {
                    "internalType": "bool",
                    "name": "",
                    "type": "bool"
                }
            ],
            "stateMutability": "view",
            "type": "function"
        },
        {
            "inputs": [],
            "name": "symbol",
            "outputs": [
                {
                    "internalType": "string",
                    "name": "",
                    "type": "string"
                }
            ],
            "stateMutability": "view",
            "type": "function"
        },
        {
            "inputs": [
                {
                    "internalType": "uint256",
                    "name": "tokenId",
                    "type": "uint256"
                }
            ],
            "name": "tokenURI",
            "outputs": [
                {
                    "internalType": "string",
                    "name": "",
                    "type": "string"
                }
            ],
            "stateMutability": "view",
            "type": "function"
        },
        {
            "inputs": [
                {
                    "internalType": "address",
                    "name": "from",
                    "type": "address"
                },
                {
                    "internalType": "address",
                    "name": "to",
                    "type": "address"
                },
                {
                    "internalType": "uint256",
                    "name": "tokenId",
                    "type": "uint256"
                }
            ],
            "name": "transferFrom",
            "outputs": [],
            "stateMutability": "nonpayable",
            "type": "function"
        }
    ],
    "bytecode": "0x608060405260405180610100016040528060d381526020016200440c60d39139600890805190602001906200003692919062000867565b50604051806080016040528060568152602001620044df60569139600990805190602001906200006892919062000867565b506040518060c001604052806040518060400160405280600681526020017f4a616e69636b000000000000000000000000000000000000000000000000000081525081526020016040518060400160405280600481526020017f4b69726b0000000000000000000000000000000000000000000000000000000081525081526020016040518060400160405280600481526020017f546f6e790000000000000000000000000000000000000000000000000000000081525081526020016040518060400160405280600781526020017f4d69636861656c0000000000000000000000000000000000000000000000000081525081526020016040518060400160405280600581526020017f536c61736800000000000000000000000000000000000000000000000000000081525081526020016040518060400160405280600681526020017f42696c6c69650000000000000000000000000000000000000000000000000000815250815250600a906006620001e6929190620008f8565b506040518060c001604052806040518060400160405280600c81526020017f426c61636b53616262617468000000000000000000000000000000000000000081525081526020016040518060400160405280600b81526020017f5374657070656e776f6c6600000000000000000000000000000000000000000081525081526020016040518060400160405280600a81526020017f49726f6e4d616964656e0000000000000000000000000000000000000000000081525081526020016040518060400160405280600981526020017f4d6574616c6c696361000000000000000000000000000000000000000000000081525081526020016040518060400160405280600b81526020017f47756e734e27526f73657300000000000000000000000000000000000000000081525081526020016040518060400160405280600881526020017f477265656e446179000000000000000000000000000000000000000000000000815250815250600b90600662000364929190620008f8565b506040518060e001604052806040518060400160405280600781526020017f43757063616b650000000000000000000000000000000000000000000000000081525081526020016040518060400160405280600581526020017f50697a7a6100000000000000000000000000000000000000000000000000000081525081526020016040518060400160405280600981526020017f4d696c6b7368616b65000000000000000000000000000000000000000000000081525081526020016040518060400160405280600581526020017f437572727900000000000000000000000000000000000000000000000000000081525081526020016040518060400160405280600781526020017f436869636b656e0000000000000000000000000000000000000000000000000081525081526020016040518060400160405280600581526020017f53616c616400000000000000000000000000000000000000000000000000000081525081526020016040518060400160405280600881526020017f53616e6477696368000000000000000000000000000000000000000000000000815250815250600c9060076200051d9291906200095f565b506040518060c001604052806040518060400160405280600781526020017f233138333138320000000000000000000000000000000000000000000000000081525081526020016040518060400160405280600781526020017f233334303733640000000000000000000000000000000000000000000000000081525081526020016040518060400160405280600781526020017f236566373435630000000000000000000000000000000000000000000000000081525081526020016040518060400160405280600781526020017f233030376635660000000000000000000000000000000000000000000000000081525081526020016040518060400160405280600781526020017f233333333533330000000000000000000000000000000000000000000000000081525081526020016040518060400160405280600781526020017f2337323030323600000000000000000000000000000000000000000000000000815250815250600d9060066200069b929190620008f8565b50348015620006a957600080fd5b506040518060400160405280600b81526020017f537175617265204e4654730000000000000000000000000000000000000000008152506040518060400160405280600381526020017f535152000000000000000000000000000000000000000000000000000000000081525081600090805190602001906200072e92919062000867565b5080600190805190602001906200074792919062000867565b505050620007956040518060400160405280601c81526020017f546869732069732061204e465420736d61727420636f6e7472616374000000008152506200079b60201b620011a81760201c565b62000b80565b6200083b81604051602401620007b2919062000a94565b6040516020818303038152906040527f41304fac000000000000000000000000000000000000000000000000000000007bffffffffffffffffffffffffffffffffffffffffffffffffffffffff19166020820180517bffffffffffffffffffffffffffffffffffffffffffffffffffffffff83818316178352505050506200083e60201b60201c565b50565b60008151905060006a636f6e736f6c652e6c6f679050602083016000808483855afa5050505050565b828054620008759062000b0a565b90600052602060002090601f016020900481019282620008995760008555620008e5565b82601f10620008b457805160ff1916838001178555620008e5565b82800160010185558215620008e5579182015b82811115620008e4578251825591602001919060010190620008c7565b5b509050620008f49190620009c6565b5090565b8280548282559060005260206000209081019282156200094c579160200282015b828111156200094b5782518290805190602001906200093a92919062000867565b509160200191906001019062000919565b5b5090506200095b9190620009e5565b5090565b828054828255906000526020600020908101928215620009b3579160200282015b82811115620009b2578251829080519060200190620009a192919062000867565b509160200191906001019062000980565b5b509050620009c29190620009e5565b5090565b5b80821115620009e1576000816000905550600101620009c7565b5090565b5b8082111562000a095760008181620009ff919062000a0d565b50600101620009e6565b5090565b50805462000a1b9062000b0a565b6000825580601f1062000a2f575062000a50565b601f01602090049060005260206000209081019062000a4f9190620009c6565b5b50565b600062000a608262000ab8565b62000a6c818562000ac3565b935062000a7e81856020860162000ad4565b62000a898162000b6f565b840191505092915050565b6000602082019050818103600083015262000ab0818462000a53565b905092915050565b600081519050919050565b600082825260208201905092915050565b60005b8381101562000af457808201518184015260208101905062000ad7565b8381111562000b04576000848401525b50505050565b6000600282049050600182168062000b2357607f821691505b6020821081141562000b3a5762000b3962000b40565b5b50919050565b7f4e487b7100000000000000000000000000000000000000000000000000000000600052602260045260246000fd5b6000601f19601f8301169050919050565b61387c8062000b906000396000f3fe608060405234801561001057600080fd5b50600436106101165760003560e01c80635c5021d7116100a2578063a22cb46511610071578063a22cb4651461032b578063b88d4fde14610347578063c87b56dd14610363578063de9d132f14610393578063e985e9c51461039d57610116565b80635c5021d71461027d5780636352211e146102ad57806370a08231146102dd57806395d89b411461030d57610116565b806321d7ed38116100e957806321d7ed38146101b557806323b872dd146101e557806337b719b81461020157806342842e0e1461023157806352f9fd941461024d57610116565b806301ffc9a71461011b57806306fdde031461014b578063081812fc14610169578063095ea7b314610199575b600080fd5b61013560048036038101906101309190612597565b6103cd565b6040516101429190612c4b565b60405180910390f35b6101536104af565b6040516101609190612c66565b60405180910390f35b610183600480360381019061017e91906125e9565b610541565b6040516101909190612be4565b60405180910390f35b6101b360048036038101906101ae919061255b565b610587565b005b6101cf60048036038101906101ca91906125e9565b61069f565b6040516101dc9190612c66565b60405180910390f35b6101ff60048036038101906101fa9190612455565b6107bd565b005b61021b600480360381019061021691906125e9565b61081d565b6040516102289190612c66565b60405180910390f35b61024b60048036038101906102469190612455565b61093b565b005b610267600480360381019061026291906125e9565b61095b565b6040516102749190612c66565b60405180910390f35b610297600480360381019061029291906125e9565b610a79565b6040516102a49190612c66565b60405180910390f35b6102c760048036038101906102c291906125e9565b610b97565b6040516102d49190612be4565b60405180910390f35b6102f760048036038101906102f291906123f0565b610c49565b6040516103049190612e46565b60405180910390f35b610315610d01565b6040516103229190612c66565b60405180910390f35b6103456004803603810190610340919061251f565b610d93565b005b610361600480360381019061035c91906124a4565b610da9565b005b61037d600480360381019061037891906125e9565b610e0b565b60405161038a9190612c66565b60405180910390f35b61039b610f1e565b005b6103b760048036038101906103b29190612419565b611114565b6040516103c49190612c4b565b60405180910390f35b60007f80ac58cd000000000000000000000000000000000000000000000000000000007bffffffffffffffffffffffffffffffffffffffffffffffffffffffff1916827bffffffffffffffffffffffffffffffffffffffffffffffffffffffff1916148061049857507f5b5e139f000000000000000000000000000000000000000000000000000000007bffffffffffffffffffffffffffffffffffffffffffffffffffffffff1916827bffffffffffffffffffffffffffffffffffffffffffffffffffffffff1916145b806104a857506104a782611241565b5b9050919050565b6060600080546104be906130da565b80601f01602080910402602001604051908101604052809291908181526020018280546104ea906130da565b80156105375780601f1061050c57610100808354040283529160200191610537565b820191906000526020600020905b81548152906001019060200180831161051a57829003601f168201915b5050505050905090565b600061054c826112ab565b6004600083815260200190815260200160002060009054906101000a900473ffffffffffffffffffffffffffffffffffffffff169050919050565b600061059282610b97565b90508073ffffffffffffffffffffffffffffffffffffffff168373ffffffffffffffffffffffffffffffffffffffff161415610603576040517f08c379a00000000000000000000000000000000000000000000000000000000081526004016105fa90612e06565b60405180910390fd5b8073ffffffffffffffffffffffffffffffffffffffff166106226112f6565b73ffffffffffffffffffffffffffffffffffffffff16148061065157506106508161064b6112f6565b611114565b5b610690576040517f08c379a000000000000000000000000000000000000000000000000000000000815260040161068790612da6565b60405180910390fd5b61069a83836112fe565b505050565b606060006106d36106af846113b7565b6040516020016106bf9190612af5565b604051602081830303815290604052611564565b9050600c80549050816106e69190613186565b9050600c8181548110610722577f4e487b7100000000000000000000000000000000000000000000000000000000600052603260045260246000fd5b906000526020600020018054610737906130da565b80601f0160208091040260200160405190810160405280929190818152602001828054610763906130da565b80156107b05780601f10610785576101008083540402835291602001916107b0565b820191906000526020600020905b81548152906001019060200180831161079357829003601f168201915b5050505050915050919050565b6107ce6107c86112f6565b82611597565b61080d576040517f08c379a000000000000000000000000000000000000000000000000000000000815260040161080490612e26565b60405180910390fd5b61081883838361162c565b505050565b6060600061085161082d846113b7565b60405160200161083d9190612b17565b604051602081830303815290604052611564565b9050600b80549050816108649190613186565b9050600b81815481106108a0577f4e487b7100000000000000000000000000000000000000000000000000000000600052603260045260246000fd5b9060005260206000200180546108b5906130da565b80601f01602080910402602001604051908101604052809291908181526020018280546108e1906130da565b801561092e5780601f106109035761010080835404028352916020019161092e565b820191906000526020600020905b81548152906001019060200180831161091157829003601f168201915b5050505050915050919050565b61095683838360405180602001604052806000815250610da9565b505050565b6060600061098f61096b846113b7565b60405160200161097b9190612bc2565b604051602081830303815290604052611564565b9050600d80549050816109a29190613186565b9050600d81815481106109de577f4e487b7100000000000000000000000000000000000000000000000000000000600052603260045260246000fd5b9060005260206000200180546109f3906130da565b80601f0160208091040260200160405190810160405280929190818152602001828054610a1f906130da565b8015610a6c5780601f10610a4157610100808354040283529160200191610a6c565b820191906000526020600020905b815481529060010190602001808311610a4f57829003601f168201915b5050505050915050919050565b60606000610aad610a89846113b7565b604051602001610a999190612b7e565b604051602081830303815290604052611564565b9050600a8054905081610ac09190613186565b9050600a8181548110610afc577f4e487b7100000000000000000000000000000000000000000000000000000000600052603260045260246000fd5b906000526020600020018054610b11906130da565b80601f0160208091040260200160405190810160405280929190818152602001828054610b3d906130da565b8015610b8a5780601f10610b5f57610100808354040283529160200191610b8a565b820191906000526020600020905b815481529060010190602001808311610b6d57829003601f168201915b5050505050915050919050565b6000806002600084815260200190815260200160002060009054906101000a900473ffffffffffffffffffffffffffffffffffffffff169050600073ffffffffffffffffffffffffffffffffffffffff168173ffffffffffffffffffffffffffffffffffffffff161415610c40576040517f08c379a0000000000000000000000000000000000000000000000000000000008152600401610c3790612de6565b60405180910390fd5b80915050919050565b60008073ffffffffffffffffffffffffffffffffffffffff168273ffffffffffffffffffffffffffffffffffffffff161415610cba576040517f08c379a0000000000000000000000000000000000000000000000000000000008152600401610cb190612d66565b60405180910390fd5b600360008373ffffffffffffffffffffffffffffffffffffffff1673ffffffffffffffffffffffffffffffffffffffff168152602001908152602001600020549050919050565b606060018054610d10906130da565b80601f0160208091040260200160405190810160405280929190818152602001828054610d3c906130da565b8015610d895780601f10610d5e57610100808354040283529160200191610d89565b820191906000526020600020905b815481529060010190602001808311610d6c57829003601f168201915b5050505050905090565b610da5610d9e6112f6565b8383611893565b5050565b610dba610db46112f6565b83611597565b610df9576040517f08c379a0000000000000000000000000000000000000000000000000000000008152600401610df090612e26565b60405180910390fd5b610e0584848484611a00565b50505050565b6060610e16826112ab565b6000600660008481526020019081526020016000208054610e36906130da565b80601f0160208091040260200160405190810160405280929190818152602001828054610e62906130da565b8015610eaf5780601f10610e8457610100808354040283529160200191610eaf565b820191906000526020600020905b815481529060010190602001808311610e9257829003601f168201915b505050505090506000610ec0611a5c565b9050600081511415610ed6578192505050610f19565b600082511115610f0b578082604051602001610ef3929190612a57565b60405160208183030381529060405292505050610f19565b610f1484611a73565b925050505b919050565b6000610f2a6007611adb565b90506000610f3782610a79565b90506000610f448361081d565b90506000610f518461069f565b90506000610f5e8561095b565b90506000848484604051602001610f7793929190612a7b565b60405160208183030381529060405290506000600883600984604051602001610fa39493929190612aac565b60405160208183030381529060405290506000610fe883610fc384611ae9565b604051602001610fd4929190612b39565b604051602081830303815290604052611ae9565b9050600081604051602001610ffd9190612ba0565b604051602081830303815290604052905061104c6040518060400160405280601081526020017f0a2d2d2d2d2d2d2d2d2d2d2d2d2d2d2d000000000000000000000000000000008152506111a8565b611055816111a8565b6110936040518060400160405280601081526020017f2d2d2d2d2d2d2d2d2d2d2d2d2d2d2d0a000000000000000000000000000000008152506111a8565b61109d338a611ca7565b6110dc896040518060400160405280600881526020017f66696e616c555249000000000000000000000000000000000000000000000000815250611cc5565b6110e66007611d39565b611109604051806060016040528060278152602001613820602791398a33611d4f565b505050505050505050565b6000600560008473ffffffffffffffffffffffffffffffffffffffff1673ffffffffffffffffffffffffffffffffffffffff16815260200190815260200160002060008373ffffffffffffffffffffffffffffffffffffffff1673ffffffffffffffffffffffffffffffffffffffff16815260200190815260200160002060009054906101000a900460ff16905092915050565b61123e816040516024016111bc9190612c66565b6040516020818303038152906040527f41304fac000000000000000000000000000000000000000000000000000000007bffffffffffffffffffffffffffffffffffffffffffffffffffffffff19166020820180517bffffffffffffffffffffffffffffffffffffffffffffffffffffffff8381831617835250505050611dee565b50565b60007f01ffc9a7000000000000000000000000000000000000000000000000000000007bffffffffffffffffffffffffffffffffffffffffffffffffffffffff1916827bffffffffffffffffffffffffffffffffffffffffffffffffffffffff1916149050919050565b6112b481611e17565b6112f3576040517f08c379a00000000000000000000000000000000000000000000000000000000081526004016112ea90612de6565b60405180910390fd5b50565b600033905090565b816004600083815260200190815260200160002060006101000a81548173ffffffffffffffffffffffffffffffffffffffff021916908373ffffffffffffffffffffffffffffffffffffffff160217905550808273ffffffffffffffffffffffffffffffffffffffff1661137183610b97565b73ffffffffffffffffffffffffffffffffffffffff167f8c5be1e5ebec7d5bd14f71427d1e84f3dd0314c0f7b2291e5b200ac8c7c3b92560405160405180910390a45050565b606060008214156113ff576040518060400160405280600181526020017f3000000000000000000000000000000000000000000000000000000000000000815250905061155f565b600082905060005b6000821461143157808061141a9061313d565b915050600a8261142a9190612f65565b9150611407565b60008167ffffffffffffffff811115611473577f4e487b7100000000000000000000000000000000000000000000000000000000600052604160045260246000fd5b6040519080825280601f01601f1916602001820160405280156114a55781602001600182028036833780820191505090505b5090505b60008514611558576001826114be9190612ff0565b9150600a856114cd9190613186565b60306114d99190612f0f565b60f81b818381518110611515577f4e487b7100000000000000000000000000000000000000000000000000000000600052603260045260246000fd5b60200101907effffffffffffffffffffffffffffffffffffffffffffffffffffffffffffff1916908160001a905350600a856115519190612f65565b94506114a9565b8093505050505b919050565b6000816040516020016115779190612a40565b6040516020818303038152906040528051906020012060001c9050919050565b6000806115a383610b97565b90508073ffffffffffffffffffffffffffffffffffffffff168473ffffffffffffffffffffffffffffffffffffffff1614806115e557506115e48185611114565b5b8061162357508373ffffffffffffffffffffffffffffffffffffffff1661160b84610541565b73ffffffffffffffffffffffffffffffffffffffff16145b91505092915050565b8273ffffffffffffffffffffffffffffffffffffffff1661164c82610b97565b73ffffffffffffffffffffffffffffffffffffffff16146116a2576040517f08c379a000000000000000000000000000000000000000000000000000000000815260040161169990612ce6565b60405180910390fd5b600073ffffffffffffffffffffffffffffffffffffffff168273ffffffffffffffffffffffffffffffffffffffff161415611712576040517f08c379a000000000000000000000000000000000000000000000000000000000815260040161170990612d26565b60405180910390fd5b61171d838383611e83565b6117286000826112fe565b6001600360008573ffffffffffffffffffffffffffffffffffffffff1673ffffffffffffffffffffffffffffffffffffffff16815260200190815260200160002060008282546117789190612ff0565b925050819055506001600360008473ffffffffffffffffffffffffffffffffffffffff1673ffffffffffffffffffffffffffffffffffffffff16815260200190815260200160002060008282546117cf9190612f0f565b92505081905550816002600083815260200190815260200160002060006101000a81548173ffffffffffffffffffffffffffffffffffffffff021916908373ffffffffffffffffffffffffffffffffffffffff160217905550808273ffffffffffffffffffffffffffffffffffffffff168473ffffffffffffffffffffffffffffffffffffffff167fddf252ad1be2c89b69c2b068fc378daa952ba7f163c4a11628f55a4df523b3ef60405160405180910390a461188e838383611e88565b505050565b8173ffffffffffffffffffffffffffffffffffffffff168373ffffffffffffffffffffffffffffffffffffffff161415611902576040517f08c379a00000000000000000000000000000000000000000000000000000000081526004016118f990612d46565b60405180910390fd5b80600560008573ffffffffffffffffffffffffffffffffffffffff1673ffffffffffffffffffffffffffffffffffffffff16815260200190815260200160002060008473ffffffffffffffffffffffffffffffffffffffff1673ffffffffffffffffffffffffffffffffffffffff16815260200190815260200160002060006101000a81548160ff0219169083151502179055508173ffffffffffffffffffffffffffffffffffffffff168373ffffffffffffffffffffffffffffffffffffffff167f17307eab39ab6107e8899845ad3d59bd9653f200f220920489ca2b5937696c31836040516119f39190612c4b565b60405180910390a3505050565b611a0b84848461162c565b611a1784848484611e8d565b611a56576040517f08c379a0000000000000000000000000000000000000000000000000000000008152600401611a4d90612cc6565b60405180910390fd5b50505050565b606060405180602001604052806000815250905090565b6060611a7e826112ab565b6000611a88611a5c565b90506000815111611aa85760405180602001604052806000815250611ad3565b80611ab2846113b7565b604051602001611ac3929190612a57565b6040516020818303038152906040525b915050919050565b600081600001549050919050565b60606000825190506000811415611b125760405180602001604052806000815250915050611ca2565b60006003600283611b239190612f0f565b611b2d9190612f65565b6004611b399190612f96565b90506000602082611b4a9190612f0f565b67ffffffffffffffff811115611b89577f4e487b7100000000000000000000000000000000000000000000000000000000600052604160045260246000fd5b6040519080825280601f01601f191660200182016040528015611bbb5781602001600182028036833780820191505090505b50905060006040518060600160405280604081526020016137e0604091399050600181016020830160005b86811015611c5f5760038101905062ffffff818a015116603f8160121c168401518060081b905060ff603f83600c1c1686015116810190508060081b905060ff603f8360061c1686015116810190508060081b905060ff603f831686015116810190508060e01b90508084526004840193505050611be6565b506003860660018114611c795760028114611c8957611c94565b613d3d60f01b6002830352611c94565b603d60f81b60018303525b508484525050819450505050505b919050565b611cc1828260405180602001604052806000815250612024565b5050565b611cce82611e17565b611d0d576040517f08c379a0000000000000000000000000000000000000000000000000000000008152600401611d0490612d86565b60405180910390fd5b80600660008481526020019081526020016000209080519060200190611d3492919061227c565b505050565b6001816000016000828254019250508190555050565b611de9838383604051602401611d6793929190612c88565b6040516020818303038152906040527fe3849f79000000000000000000000000000000000000000000000000000000007bffffffffffffffffffffffffffffffffffffffffffffffffffffffff19166020820180517bffffffffffffffffffffffffffffffffffffffffffffffffffffffff8381831617835250505050611dee565b505050565b60008151905060006a636f6e736f6c652e6c6f679050602083016000808483855afa5050505050565b60008073ffffffffffffffffffffffffffffffffffffffff166002600084815260200190815260200160002060009054906101000a900473ffffffffffffffffffffffffffffffffffffffff1673ffffffffffffffffffffffffffffffffffffffff1614159050919050565b505050565b505050565b6000611eae8473ffffffffffffffffffffffffffffffffffffffff1661207f565b15612017578373ffffffffffffffffffffffffffffffffffffffff1663150b7a02611ed76112f6565b8786866040518563ffffffff1660e01b8152600401611ef99493929190612bff565b602060405180830381600087803b158015611f1357600080fd5b505af1925050508015611f4457506040513d601f19601f82011682018060405250810190611f4191906125c0565b60015b611fc7573d8060008114611f74576040519150601f19603f3d011682016040523d82523d6000602084013e611f79565b606091505b50600081511415611fbf576040517f08c379a0000000000000000000000000000000000000000000000000000000008152600401611fb690612cc6565b60405180910390fd5b805181602001fd5b63150b7a0260e01b7bffffffffffffffffffffffffffffffffffffffffffffffffffffffff1916817bffffffffffffffffffffffffffffffffffffffffffffffffffffffff19161491505061201c565b600190505b949350505050565b61202e83836120a2565b61203b6000848484611e8d565b61207a576040517f08c379a000000000000000000000000000000000000000000000000000000000815260040161207190612cc6565b60405180910390fd5b505050565b6000808273ffffffffffffffffffffffffffffffffffffffff163b119050919050565b600073ffffffffffffffffffffffffffffffffffffffff168273ffffffffffffffffffffffffffffffffffffffff161415612112576040517f08c379a000000000000000000000000000000000000000000000000000000000815260040161210990612dc6565b60405180910390fd5b61211b81611e17565b1561215b576040517f08c379a000000000000000000000000000000000000000000000000000000000815260040161215290612d06565b60405180910390fd5b61216760008383611e83565b6001600360008473ffffffffffffffffffffffffffffffffffffffff1673ffffffffffffffffffffffffffffffffffffffff16815260200190815260200160002060008282546121b79190612f0f565b92505081905550816002600083815260200190815260200160002060006101000a81548173ffffffffffffffffffffffffffffffffffffffff021916908373ffffffffffffffffffffffffffffffffffffffff160217905550808273ffffffffffffffffffffffffffffffffffffffff16600073ffffffffffffffffffffffffffffffffffffffff167fddf252ad1be2c89b69c2b068fc378daa952ba7f163c4a11628f55a4df523b3ef60405160405180910390a461227860008383611e88565b5050565b828054612288906130da565b90600052602060002090601f0160209004810192826122aa57600085556122f1565b82601f106122c357805160ff19168380011785556122f1565b828001600101855582156122f1579182015b828111156122f05782518255916020019190600101906122d5565b5b5090506122fe9190612302565b5090565b5b8082111561231b576000816000905550600101612303565b5090565b600061233261232d84612e86565b612e61565b90508281526020810184848401111561234a57600080fd5b612355848285613098565b509392505050565b60008135905061236c81613783565b92915050565b6000813590506123818161379a565b92915050565b600081359050612396816137b1565b92915050565b6000815190506123ab816137b1565b92915050565b600082601f8301126123c257600080fd5b81356123d284826020860161231f565b91505092915050565b6000813590506123ea816137c8565b92915050565b60006020828403121561240257600080fd5b60006124108482850161235d565b91505092915050565b6000806040838503121561242c57600080fd5b600061243a8582860161235d565b925050602061244b8582860161235d565b9150509250929050565b60008060006060848603121561246a57600080fd5b60006124788682870161235d565b93505060206124898682870161235d565b925050604061249a868287016123db565b9150509250925092565b600080600080608085870312156124ba57600080fd5b60006124c88782880161235d565b94505060206124d98782880161235d565b93505060406124ea878288016123db565b925050606085013567ffffffffffffffff81111561250757600080fd5b612513878288016123b1565b91505092959194509250565b6000806040838503121561253257600080fd5b60006125408582860161235d565b925050602061255185828601612372565b9150509250929050565b6000806040838503121561256e57600080fd5b600061257c8582860161235d565b925050602061258d858286016123db565b9150509250929050565b6000602082840312156125a957600080fd5b60006125b784828501612387565b91505092915050565b6000602082840312156125d257600080fd5b60006125e08482850161239c565b91505092915050565b6000602082840312156125fb57600080fd5b6000612609848285016123db565b91505092915050565b61261b81613024565b82525050565b61262a81613036565b82525050565b600061263b82612ecc565b6126458185612ee2565b93506126558185602086016130a7565b61265e81613273565b840191505092915050565b600061267482612ed7565b61267e8185612ef3565b935061268e8185602086016130a7565b61269781613273565b840191505092915050565b60006126ad82612ed7565b6126b78185612f04565b93506126c78185602086016130a7565b80840191505092915050565b600081546126e0816130da565b6126ea8186612f04565b94506001821660008114612705576001811461271657612749565b60ff19831686528186019350612749565b61271f85612eb7565b60005b8381101561274157815481890152600182019150602081019050612722565b838801955050505b50505092915050565b600061275f603283612ef3565b915061276a82613284565b604082019050919050565b6000612782602583612ef3565b915061278d826132d3565b604082019050919050565b60006127a5601c83612ef3565b91506127b082613322565b602082019050919050565b60006127c8600a83612f04565b91506127d38261334b565b600a82019050919050565b60006127eb602483612ef3565b91506127f682613374565b604082019050919050565b600061280e601983612ef3565b9150612819826133c3565b602082019050919050565b6000612831606383612f04565b915061283c826133ec565b606382019050919050565b6000612854600b83612f04565b915061285f82613487565b600b82019050919050565b6000612877600d83612f04565b9150612882826134b0565b600d82019050919050565b600061289a602983612ef3565b91506128a5826134d9565b604082019050919050565b60006128bd602e83612ef3565b91506128c882613528565b604082019050919050565b60006128e0600283612f04565b91506128eb82613577565b600282019050919050565b6000612903603e83612ef3565b915061290e826135a0565b604082019050919050565b6000612926602083612ef3565b9150612931826135ef565b602082019050919050565b6000612949600a83612f04565b915061295482613618565b600a82019050919050565b600061296c601883612ef3565b915061297782613641565b602082019050919050565b600061298f602183612ef3565b915061299a8261366a565b604082019050919050565b60006129b2600a83612f04565b91506129bd826136b9565b600a82019050919050565b60006129d5601d83612f04565b91506129e0826136e2565b601d82019050919050565b60006129f8600583612f04565b9150612a038261370b565b600582019050919050565b6000612a1b602e83612ef3565b9150612a2682613734565b604082019050919050565b612a3a8161308e565b82525050565b6000612a4c82846126a2565b915081905092915050565b6000612a6382856126a2565b9150612a6f82846126a2565b91508190509392505050565b6000612a8782866126a2565b9150612a9382856126a2565b9150612a9f82846126a2565b9150819050949350505050565b6000612ab882876126d3565b9150612ac482866126a2565b9150612ad082856126d3565b9150612adc82846126a2565b9150612ae78261286a565b915081905095945050505050565b6000612b00826127bb565b9150612b0c82846126a2565b915081905092915050565b6000612b2282612847565b9150612b2e82846126a2565b915081905092915050565b6000612b448261293c565b9150612b5082856126a2565b9150612b5b82612824565b9150612b6782846126a2565b9150612b72826128d3565b91508190509392505050565b6000612b89826129a5565b9150612b9582846126a2565b915081905092915050565b6000612bab826129c8565b9150612bb782846126a2565b915081905092915050565b6000612bcd826129eb565b9150612bd982846126a2565b915081905092915050565b6000602082019050612bf96000830184612612565b92915050565b6000608082019050612c146000830187612612565b612c216020830186612612565b612c2e6040830185612a31565b8181036060830152612c408184612630565b905095945050505050565b6000602082019050612c606000830184612621565b92915050565b60006020820190508181036000830152612c808184612669565b905092915050565b60006060820190508181036000830152612ca28186612669565b9050612cb16020830185612a31565b612cbe6040830184612612565b949350505050565b60006020820190508181036000830152612cdf81612752565b9050919050565b60006020820190508181036000830152612cff81612775565b9050919050565b60006020820190508181036000830152612d1f81612798565b9050919050565b60006020820190508181036000830152612d3f816127de565b9050919050565b60006020820190508181036000830152612d5f81612801565b9050919050565b60006020820190508181036000830152612d7f8161288d565b9050919050565b60006020820190508181036000830152612d9f816128b0565b9050919050565b60006020820190508181036000830152612dbf816128f6565b9050919050565b60006020820190508181036000830152612ddf81612919565b9050919050565b60006020820190508181036000830152612dff8161295f565b9050919050565b60006020820190508181036000830152612e1f81612982565b9050919050565b60006020820190508181036000830152612e3f81612a0e565b9050919050565b6000602082019050612e5b6000830184612a31565b92915050565b6000612e6b612e7c565b9050612e77828261310c565b919050565b6000604051905090565b600067ffffffffffffffff821115612ea157612ea0613244565b5b612eaa82613273565b9050602081019050919050565b60008190508160005260206000209050919050565b600081519050919050565b600081519050919050565b600082825260208201905092915050565b600082825260208201905092915050565b600081905092915050565b6000612f1a8261308e565b9150612f258361308e565b9250827fffffffffffffffffffffffffffffffffffffffffffffffffffffffffffffffff03821115612f5a57612f596131b7565b5b828201905092915050565b6000612f708261308e565b9150612f7b8361308e565b925082612f8b57612f8a6131e6565b5b828204905092915050565b6000612fa18261308e565b9150612fac8361308e565b9250817fffffffffffffffffffffffffffffffffffffffffffffffffffffffffffffffff0483118215151615612fe557612fe46131b7565b5b828202905092915050565b6000612ffb8261308e565b91506130068361308e565b925082821015613019576130186131b7565b5b828203905092915050565b600061302f8261306e565b9050919050565b60008115159050919050565b60007fffffffff0000000000000000000000000000000000000000000000000000000082169050919050565b600073ffffffffffffffffffffffffffffffffffffffff82169050919050565b6000819050919050565b82818337600083830152505050565b60005b838110156130c55780820151818401526020810190506130aa565b838111156130d4576000848401525b50505050565b600060028204905060018216806130f257607f821691505b6020821081141561310657613105613215565b5b50919050565b61311582613273565b810181811067ffffffffffffffff8211171561313457613133613244565b5b80604052505050565b60006131488261308e565b91507fffffffffffffffffffffffffffffffffffffffffffffffffffffffffffffffff82141561317b5761317a6131b7565b5b600182019050919050565b60006131918261308e565b915061319c8361308e565b9250826131ac576131ab6131e6565b5b828206905092915050565b7f4e487b7100000000000000000000000000000000000000000000000000000000600052601160045260246000fd5b7f4e487b7100000000000000000000000000000000000000000000000000000000600052601260045260246000fd5b7f4e487b7100000000000000000000000000000000000000000000000000000000600052602260045260246000fd5b7f4e487b7100000000000000000000000000000000000000000000000000000000600052604160045260246000fd5b6000601f19601f8301169050919050565b7f4552433732313a207472616e7366657220746f206e6f6e20455243373231526560008201527f63656976657220696d706c656d656e7465720000000000000000000000000000602082015250565b7f4552433732313a207472616e736665722066726f6d20696e636f72726563742060008201527f6f776e6572000000000000000000000000000000000000000000000000000000602082015250565b7f4552433732313a20746f6b656e20616c7265616479206d696e74656400000000600082015250565b7f54484952445f574f524400000000000000000000000000000000000000000000600082015250565b7f4552433732313a207472616e7366657220746f20746865207a65726f2061646460008201527f7265737300000000000000000000000000000000000000000000000000000000602082015250565b7f4552433732313a20617070726f766520746f2063616c6c657200000000000000600082015250565b7f222c20226465736372697074696f6e223a20224120686967686c79206163636c60008201527f61696d656420636f6c6c656374696f6e206f6620737175617265732e222c202260208201527f696d616765223a2022646174613a696d6167652f7376672b786d6c3b6261736560408201527f36342c0000000000000000000000000000000000000000000000000000000000606082015250565b7f5345434f4e445f574f5244000000000000000000000000000000000000000000600082015250565b7f3c2f746578743e3c2f7376673e00000000000000000000000000000000000000600082015250565b7f4552433732313a2061646472657373207a65726f206973206e6f74206120766160008201527f6c6964206f776e65720000000000000000000000000000000000000000000000602082015250565b7f45524337323155524953746f726167653a2055524920736574206f66206e6f6e60008201527f6578697374656e7420746f6b656e000000000000000000000000000000000000602082015250565b7f227d000000000000000000000000000000000000000000000000000000000000600082015250565b7f4552433732313a20617070726f76652063616c6c6572206973206e6f7420746f60008201527f6b656e206f776e6572206e6f7220617070726f76656420666f7220616c6c0000602082015250565b7f4552433732313a206d696e7420746f20746865207a65726f2061646472657373600082015250565b7f7b226e616d65223a202200000000000000000000000000000000000000000000600082015250565b7f4552433732313a20696e76616c696420746f6b656e2049440000000000000000600082015250565b7f4552433732313a20617070726f76616c20746f2063757272656e74206f776e6560008201527f7200000000000000000000000000000000000000000000000000000000000000602082015250565b7f46495253545f574f524400000000000000000000000000000000000000000000600082015250565b7f646174613a6170706c69636174696f6e2f6a736f6e3b6261736536342c000000600082015250565b7f434f4c4f52000000000000000000000000000000000000000000000000000000600082015250565b7f4552433732313a2063616c6c6572206973206e6f7420746f6b656e206f776e6560008201527f72206e6f7220617070726f766564000000000000000000000000000000000000602082015250565b61378c81613024565b811461379757600080fd5b50565b6137a381613036565b81146137ae57600080fd5b50565b6137ba81613042565b81146137c557600080fd5b50565b6137d18161308e565b81146137dc57600080fd5b5056fe4142434445464748494a4b4c4d4e4f505152535455565758595a6162636465666768696a6b6c6d6e6f707172737475767778797a303132333435363738392b2f416e204e4654207769746820494420257320686173206265656e206d696e74656420746f202573a26469706673582212206d5b7815d515533d62127938dab2534d59b0ea684589665db3de5324c3c869b764736f6c634300080100333c73766720786d6c6e733d27687474703a2f2f7777772e77332e6f72672f323030302f73766727207072657365727665417370656374526174696f3d27784d696e594d696e206d656574272076696577426f783d273020302033353020333530273e3c7374796c653e2e62617365207b2066696c6c3a2077686974653b20666f6e742d66616d696c793a2073657269663b20666f6e742d73697a653a20323470783b207d3c2f7374796c653e3c726563742077696474683d273130302527206865696768743d2731303025272066696c6c3d27272f3e3c7465787420783d273530252720793d273530252720636c6173733d27626173652720646f6d696e616e742d626173656c696e653d276d6964646c652720746578742d616e63686f723d276d6964646c65273e",
    "linkReferences": {},
    "deployedLinkReferences": {}
}